:0300000002015E9C
:0C015E00787FE4F6D8FD75810A020003EA
:1000F700202050742D35312056657220312E300066
:0E01070020202049495420426F6D626179002A
:100003007FF412014E7FF412014E75900FE4F5B0A8
:10001300F5A0F580F5C012006D7FF412014E7FF458
:1000230012014E7F0112012E7F8012012E7BFF7A77
:100033000079F71200D27FC012012E7BFF7A01797B
:10004300071200D2209004D2948002C2942091041B
:10005300D2958002C295209204D2968002C2962045
:0A0063009304D29780DEC29780DA82
:10006D0075A038C280C281D2827F0A12014EC2822F
:10007D007F0A12014E75A038C280C281D2827F0ADA
:10008D0012014EC2827F0A12014E75A00CC280C2AF
:10009D0081D2827F0A12014EC2827F0A12014E75F1
:1000AD00A001C280C281D2827F0A12014EC2827F1C
:1000BD000A12014E75A006C280C281D2827F0A1239
:0500CD00014EC2822279
:10012E008FA0C280C281D2827F0A12014EC2822269
:10013E008FA0D280C281D2827F0A12014EC2822249
:1000D2008B088A09890AAB08AA09A90A12011560C4
:1000E20013050AE50A7002050914F9120115FF1237
:0500F200013E80E22246
:07016A00AE071FEE70FA2240
:10014E00AD07AF051DEF60077F9612016A80F3229F
:10011500BB010689828A83E0225002E722BBFE02E8
:09012500E32289828A83E493221B
:00000001FF
