:03000000020008F3
:0300610002000397
:0500030012016D80FEFA
:08006400AA82AB837C007D0041
:0B006C00C3EC9AED9B50147EC67F028F
:050077001EBEFF011F89
:0B007C00EE4F70F70CBC00E80D80E5B3
:010087002256
:0D008800AA82AB83ACF0C002C003C004121A
:0E00950000CA900001120064D004D003D00213
:0D00A3008A828B838CF012012890000112DC
:0900B00000647582C51200FA8596
:0600B90008828509838521
:0900BF000AF012012890000A0267
:0200C8000064D2
:0E00CA007582381200FA9000011200647582EF
:0E00D800011200FA90000112006475820E12EF
:0C00E60000FA9000011200647582801284
:0800F20000FA90000102006415
:0D00FA008582A0C280C281D28290000112D6
:0A0107000064C2829000010200644F
:0D0111008582A0D280C281D28290000112AE
:0A011E000064C28290000102006438
:0A012800AA82AB83ACF07D007E00DC
:0E013200ED2AFFEE3BF88C018F82888389F066
:0E0140001201C3FF60268F82C002C003C004FC
:0E014E00C005C006120111900001120064D01D
:0E015C0006D005D004D003D0020DBD00C90EA0
:02016A0080C64D
:01016C002270
:07016D00750B20750C2075D5
:060174000D20750E577509
:06017A000F6575106C75A5
:06018000116375126F759A
:06018600136D7514657590
:06018C00152075167475C4
:06019200176F75180075DF
:060198001957751A4575A8
:06019E001B4C751C2075CE
:0601A4001D4C751E617583
:0601AA001F6275200075C4
:0301B000081975B6
:0601B3000900750A4090EE
:0801B900000B75F040120088F4
:0201C10080FEBE
:06003700E478FFF6D8FD9D
:080015007900E94400601B7A48
:05001D00009001E378F2
:030022000075A0C6
:0A00250000E493F2A308B8000205FE
:08002F00A0D9F4DAF275A0FF7C
:08003D007800E84400600A7934
:030045000075A0A3
:0600480000E4F309D8FCFE
:08004E007800E84400600C7921
:0B00560000900000E4F0A3D8FCD9FAF1
:03000800758120DF
:0A000B001201DFE58260030200032A
:0E01C30020F71430F6148883A88220F507E692
:0601D100A88375830022E3
:0301D700E280F7CC
:0301DA00E4932289
:0201DD00E0221E
:0401DF007582002203
:00000001FF
